:020000040800F2
:100000006006002031020008390200083B020008A7
:100010003D0200083F020008410200080000000005
:100020000000000000000000000000004302000883
:1000300045020008000000004702000849020008CD
:100040004B0200084B0200084B0200084B0200085C
:100050004B0200084B0200084B0200084B0200084C
:100060004B0200084B0200084B0200084B0200083C
:100070004B0200084B0200084B0200084B0200082C
:100080004B0200084B0200084B0200084B0200081C
:100090004B0200084B0200084B0200084B0200080C
:1000A0004B0200084B0200084B0200084B020008FC
:1000B0004B0200084B0200084B0200084B020008EC
:1000C0004B0200084B0200084B0200084B020008DC
:1000D0004B0200084B0200084B0200084B020008CC
:1000E0004B0200084B0200084B0200084B020008BC
:1000F0004B0200084B0200084B0200084B020008AC
:100100004B0200084B0200084B0200084B0200089B
:100110004B0200084B0200084B0200084B0200088B
:100120004B0200084B0200084B0200084B0200087B
:100130004B0200084B0200084B0200084B0200086B
:100140004B0200084B0200084B0200084B0200085B
:100150004B0200084B0200084B0200084B0200084B
:100160004B0200084B0200084B0200084B0200083B
:100170004B0200084B0200084B0200080000000080
:100180004B0200084B0200084B0200084B0200081B
:100190004B0200084B0200084B0200084B0200080B
:1001A0004B0200084B0200084B02000800F002F866
:1001B00000F02EF80AA090E8000C82448344AAF1D3
:1001C0000107DA4501D100F023F8AFF2090EBAE8D1
:1001D0000F0013F0010F18BFFB1A43F0010318477B
:1001E000D00D0000E00D00000023002400250026B3
:1001F000103A28BF78C1FBD8520728BF30C148BF8A
:100200000B6070471FB500F0C5FE1FBD10B510BDD7
:1002100000F031F81146FFF7F5FF00F0B1F800F0FB
:100220004FF803B4FFF7F2FF03BC00F057F80000EB
:100230000948804709480047FEE7FEE7FEE7FEE77A
:10024000FEE7FEE7FEE7FEE7FEE7FEE704480549B6
:10025000054A064B70470000ED020008AD0100089A
:100260006000002060060020600200206002002084
:10027000704770477047754600F02CF8AE46050091
:100280006946534620F00700854618B020B5FFF7B1
:10029000DDFFBDE820404FF000064FF000074FF0B3
:1002A00000084FF0000BAC46ACE8C009ACE8C00950
:1002B000ACE8C009ACE8C00921F007018D467047E1
:1002C00010B50446AFF300802046BDE81040FFF7AC
:1002D000A8BF000000487047000000200149182016
:1002E000ABBEFEE726000200704700004EF68850C5
:1002F000CEF20000016841F4700101604FF000612E
:1003000040F8801C7047000080B506200D210122B6
:1003100000F078F806200E21012200F073F800208A
:100320000021002200F06EF806200D21002200239B
:1003300000F0D8FA06200E210022002300F0D2FAA5
:1003400080BD000080B582B001204FF0000C00900D
:100350000020002100220023CDF804C000F008FD99
:10036000022004210022022300F07CFD002006214F
:1003700000F0C4FC0020002100F0C0FC02B080BDF1
:10038000FFF7E0FFFFF7C0FF0020002100F014F8A6
:1003900004460028B0FA80F04FEA50124FF00600F1
:1003A0004FF00D0118BF012400F022FA06200E21A3
:1003B000224600F01DFAE7E707280BD81022C4F206
:1003C0000202DFE800F01904080B0E11141702F501
:1003D000806211E0704702F500620DE002F54062B4
:1003E0000AE002F5805207E002F5A05204E002F5AF
:1003F000C05201E002F5E0521068012202FA01F158
:1004000008407047072800F2DD80DFE800F004169E
:1004100028384A84A168032A00F2D4800FF204002D
:10042000DFE812F00400D100D600DB004800012113
:1004300001FA00F240F2000C44E0032A00F2C2800C
:100440000FF20400DFE812F00400D000D500DA005B
:100450004800012101FA00F240F2000C6BE0032A8F
:1004600000F2B0800FF20400DFE802F002CFD4D92E
:100470004800012101FA00F240F2000C78E0032A62
:1004800000F2A0800FF20400DFE812F00400D000B8
:10049000E300F6004800012101FA00F240F2000CEE
:1004A0002CE0032A00F28E800FF20400DFE812F045
:1004B0000400F60008011A014800012101FA00F2C7
:1004C00041F2000CC4F2020C0130DCF8003001FAF9
:1004D00000F0104323EA0000CCF800007047032A24
:1004E00088BF70470FF20400DFE802F0024F555B4F
:1004F0004800012101FA00F241F2000CC4F2020CA2
:100500000130DCF8003C01FA00F0104323EA00005F
:10051000CCF8000C7047032A54D80FF20600DFE82D
:1005200012F00400F30007011B014800012101FA49
:1005300000F241F2000CC4F2020C0130DCF800348D
:1005400001FA00F0104323EA0000CCF800047047E1
:10055000032A37D80FF20400DFE812F0040010017C
:10056000240138014800012101FA00F241F2000C97
:10057000C4F2020C0130DCF8003801FA00F010433C
:1005800023EA0000CCF80008704748004FF0010C47
:1005900041F200024EE048004FF0010C41F200022F
:1005A0005BE04800012141F2000C01FA00F2C4F2C4
:1005B000020C0130DCF8003C01FA00F01043184353
:1005C000CCF8000C704748004FF0010C00226AE0A4
:1005D00048004FF0010C002277E04800012101FAA9
:1005E00000F240F2000C83E048004FF0010C0022C2
:1005F0008FE048004FF0010C00229EE048000121EE
:1006000001FA00F240F2000CACE048004FF0010C9F
:100610000022B8E048004FF0010C0022C7E048007B
:10062000012101FA00F240F2000CD5E048004FF041
:10063000010C0022C4F20202D2F8003C0CFA00F1D4
:10064000013019430CFA00F021EA0000C2F8000C56
:10065000704748004FF0010C0022C4F20202D2F8A9
:10066000003C0CFA00F1013023EA01010CFA00F021
:100670000843C2F8000C70474800012140F2000C0A
:1006800001FA00F2C4F2020C0130DCF8003C01FA7D
:1006900000F010431843CCF8000C704748004FF0AE
:1006A000010C41F20002C4F2020213680CFA00F1DC
:1006B000013019430CFA00F021EA00001060704785
:1006C00048004FF0010C41F20002C4F2020213682C
:1006D0000CFA00F1013023EA01010CFA00F00843A2
:1006E000106070474800012101FA00F241F2000C4D
:1006F000C4F2020C0130DCF8003001FA00F01043C3
:100700001843CCF80000704748004FF0010C41F24C
:100710000002C4F20202D2F800340CFA00F10130F7
:1007200019430CFA00F021EA0000C2F800047047F7
:1007300048004FF0010C41F20002C4F20202D2F86C
:1007400000340CFA00F1013023EA01010CFA00F048
:100750000843C2F8000470474800012101FA00F282
:1007600041F2000CC4F2020C0130DCF8003401FA52
:1007700000F010431843CCF80004704748004FF0D5
:10078000010C41F20002C4F20202D2F800380CFA65
:1007900000F1013019430CFA00F021EA0000C2F820
:1007A0000008704748004FF0010C41F20002C4F20B
:1007B0000202D2F800380CFA00F1013023EA0101FC
:1007C0000CFA00F00843C2F8000870474800012105
:1007D00001FA00F241F2000CC4F2020C0130DCF824
:1007E000003801FA00F010431843CCF800087047B5
:1007F000072888BF7047DFE800F004101E2C3A4736
:10080000566514200123C4F2020003FA01F1BABBB9
:10081000026822EA01010160704714200123C4F23A
:10082000020003FA01F1C2BBD0F8002422EA010160
:10083000C0F80014704714200123C4F2020003FA28
:1008400001F1CABBD0F8002822EA0101C0F8001863
:10085000704714200123C4F2020003FA01F1D2BB55
:10086000D0F8002C22EA0101C0F8001C704741F2C8
:1008700014000123C4F20200002A03FA01F1C7D0D8
:10088000026811430160704741F214000123C4F271
:100890000200002A03FA01F1C6D0D0F80024114367
:1008A000C0F80014704741F214000123C4F20200A2
:1008B000002A03FA01F1C5D0D0F800281143C0F88E
:1008C0000018704741F214000123C4F20200002A0C
:1008D00003FA01F1C4D0D0F8002C1143C0F8001C79
:1008E0007047000080B5072800F2BE81DFE800F005
:1008F00004283A4C165E708240F2080E012AC4F2B7
:10090000020E00F08980002A40F08D804FF0010C2B
:100910005EF8042C0CFA01F0824382E040F6084EA7
:10092000012AC4F2020E00F08780002A40F08B807A
:100930004FF0010CDEF8FC230CFA01F0824380E05A
:1009400040F2080E012AC4F2020E00F08C80002A48
:1009500040F090804FF0010CDEF8FC230CFA01F01F
:10096000824385E040F2084E012AC4F2020E00F0F4
:100970009180002A40F095804FF0010CDEF8FC23B6
:100980000CFA01F082438AE040F6084E012AC4F2D4
:10099000020E00F08D80002A40F091804FF0010C93
:1009A0005EF8042C0CFA01F0824386E041F2080E56
:1009B000012AC4F2020E00F08980002A40F08D80E6
:1009C0004FF0010CDEF8FC230CFA01F0824382E0C8
:1009D00041F6080E012AC4F2020E00F0BF80002A80
:1009E00040F0C3804FF0010C5EF8042C0CFA01F0CB
:1009F0008243B8E041F6080E012AC4F2020E00F06C
:100A0000F580002A40F0F9804FF0010CDEF8FC235D
:100A10000CFA01F08243EEE001205EF8042C8840DD
:100A200002434EF8042C032B00F21E81DFE813F082
:100A3000A400CF00B300C1000120DEF8FC238840F1
:100A40000243CEF8FC23032B00F20E81DFE813F003
:100A500004000D01130119014800012101FA00F2FF
:100A600041F2080CD6E00120DEF8FC238840024366
:100A7000CEF8FC23032B00F2F780DFE813F004002C
:100A800009011B012D014800012101FA00F240F289
:100A9000084CBFE00120DEF8FC2388400243CEF87A
:100AA000FC23032B00F2E080DFE803F01E2D3C4A1C
:100AB00001205EF8042C884002434EF8042C032BDE
:100AC00000F2D280DFE803F0588367750120DEF87A
:100AD000FC2388400243CEF8FC23032B00F2C480A1
:100AE000DFE803F00211202E4800012101FA00F294
:100AF0000130DEF8003401FA00F0104323EA000070
:100B0000CEF8000480BD48000121DEF8002401FA7F
:100B100000F301301A4301FA00F022EA0000CEF897
:100B2000000480BD48000121DEF8002401FA00F332
:100B300001309A4301FA00F01043CEF8000480BD62
:100B40004800012101FA00F20130DEF8003401FA18
:100B500000F010431843CEF8000480BD01205EF879
:100B6000042C884002434EF8042C032B00F27C80B6
:100B7000DFE803F0022D111F4800012101FA00F205
:100B80000130DEF8003001FA00F0104323EA0000E3
:100B9000CEF8000080BD48000121DEF8002001FAF7
:100BA00000F301309A4301FA00F01043CEF8000040
:100BB00080BD4800012101FA00F20130DEF800306A
:100BC00001FA00F010431843CEF8000080BD480041
:100BD0000121DEF8002001FA00F301301A4301FA86
:100BE00000F022EA0000CEF8000080BD0120DEF80F
:100BF000FC2388400243CEF8FC23032B88BF80BD32
:100C0000DFE803F002151B214800012101FA00F280
:100C100041F6084CC4F2020C0130DCF8003001FA55
:100C200000F0104323EA0000CCF8000080BD48002B
:100C30004FF0010C41F608422FE048004FF0010C44
:100C400041F608423BE04800012141F6084C01FA18
:100C500000F2C4F2020C0130DCF8003001FA00F0BE
:100C600010431843CCF8000080BD48004FF0010C41
:100C700041F2080211E048004FF0010C41F2080275
:100C80001DE04800012101FA00F241F2080C29E0C0
:100C900048004FF0010C40F20842C4F2020213680F
:100CA0000CFA00F1013019430CFA00F021EA0000BF
:100CB000106080BD48004FF0010C40F20842C4F2C1
:100CC000020213680CFA00F1013023EA01010CFA68
:100CD00000F00843106080BD4800012101FA00F2D5
:100CE00040F2084CC4F2020C0130DCF8003001FA8A
:100CF00000F010431843CCF8000080BD042888BFE2
:100D00007047DFE800F0030D17212B0043F6300297
:100D1000C4F2020201201368884018431060704733
:100D200043F63002C4F2020201205368884018439F
:100D30005060704743F63002C4F20202012093680B
:100D4000884018439060704743F63002C4F20202B4
:100D500001201369884018431061704743F6300240
:100D6000C4F2020201205369884018435061704761
:100D700043F6080C0228C4F2020C19D001280CD04A
:100D8000002843D1012921D000293FD15CF8080C6B
:100D900020F4A02000F580301CE05CF8080C40F046
:100DA00001004CF8080CDCF8000020F003002BE0F8
:100DB000012A15D052BB5CE9020140F0807040F47A
:100DC00080304CF8080C41F4800016E05CF8080C08
:100DD00040F4A0204CF8080CDCF80000012111E0E0
:100DE0005CE902014FF6FF72CFF6FE62104000F19F
:100DF00080704CF8080C21F480004CF8040CDCF8EE
:100E00000000022161F30100CCF80000591E009897
:100E1000CAB2072A08D80822DCF8003052FA81F159
:100E200043EA0111CCF8001001380199C2B2032A3B
:100E300008D80422DCF8003052FA80F043EA80201F
:100E4000CCF80000481EC1B2032988BF70470421B6
:100E5000DCF8002051FA80F042EA4030CCF8000083
:100E60007047000080B543F6040C0628C4F2020C5B
:100E70002ED8DFE800F0040A0F151B212600DCF84D
:100E800000E0022060F3010E20E0DCF8000040F0FA
:100E9000030E1BE0DCF800E0042060F3020E15E016
:100EA000DCF800E0052060F3020E0FE0DCF800E063
:100EB000062060F3020E09E0DCF8000040F0070EA7
:100EC00004E0DCF800E0082060F3030ECCF800E05A
:100ED00006290DD848B228A151F820E0DCF800100E
:100EE00047F6C07021EA000040EA0E00CCF800008E
:100EF000032A1AD8DFE802F002070D13DCF800001D
:100F000020F440300FE0DCF80000012161F31140D3
:100F100009E0DCF80000022161F3114003E0DCF895
:100F2000000040F44030CCF80000032B88BF80BDA7
:100F3000DFE803F0020A1119DCF80000022161F376
:100F40001960CCF8000080BDDCF8000040F0407073
:100F5000CCF8000080BDDCF80000042161F31A60C9
:100F6000CCF8000080BDDCF80000082161F31B60B4
:100F7000CCF8000080BD00BF800C0000000D000018
:100F8000000F00008011000000120000001400009B
:100F900080160000F1EE100A4FF6FF71C0F2C0316A
:100FA00020EA010040F04070E1EE100A70470000B6
:100FB000C00F00080000002060060000E8010008E3
:0400000508000231BC
:00000001FF
